{
  "_format": "hh-sol-artifact-1",
  "contractName": "VehicleReg",
  "sourceName": "contracts/Vehicle.sol",
  "abi": [
    {
      "inputs": [],
      "stateMutability": "nonpayable",
      "type": "constructor"
    },
    {
      "anonymous": false,
      "inputs": [
        {
          "indexed": false,
          "internalType": "string",
          "name": "vehicleName",
          "type": "string"
        },
        {
          "indexed": false,
          "internalType": "enum VehicleReg.Status",
          "name": "status",
          "type": "uint8"
        }
      ],
      "name": "VehicleDetailsAdded",
      "type": "event"
    },
    {
      "anonymous": false,
      "inputs": [
        {
          "indexed": true,
          "internalType": "address",
          "name": "previousOwner",
          "type": "address"
        },
        {
          "indexed": true,
          "internalType": "address",
          "name": "newOwner",
          "type": "address"
        }
      ],
      "name": "VehicleOwnershipTransferred",
      "type": "event"
    },
    {
      "inputs": [
        {
          "internalType": "string",
          "name": "_vehicleName",
          "type": "string"
        },
        {
          "internalType": "string",
          "name": "_vehicleModel",
          "type": "string"
        }
      ],
      "name": "addVehicleDetails",
      "outputs": [
        {
          "internalType": "bool",
          "name": "",
          "type": "bool"
        }
      ],
      "stateMutability": "nonpayable",
      "type": "function"
    },
    {
      "inputs": [],
      "name": "getAllRegisteredVehicles",
      "outputs": [
        {
          "components": [
            {
              "internalType": "string",
              "name": "vehicleName",
              "type": "string"
            },
            {
              "internalType": "string",
              "name": "vehicleModel",
              "type": "string"
            },
            {
              "internalType": "enum VehicleReg.Status",
              "name": "status",
              "type": "uint8"
            },
            {
              "internalType": "address",
              "name": "currentOwner",
              "type": "address"
            },
            {
              "internalType": "address[]",
              "name": "ownershipHistory",
              "type": "address[]"
            }
          ],
          "internalType": "struct VehicleReg.Vehicle[]",
          "name": "",
          "type": "tuple[]"
        }
      ],
      "stateMutability": "view",
      "type": "function"
    },
    {
      "inputs": [
        {
          "internalType": "uint64",
          "name": "_vehicleId",
          "type": "uint64"
        }
      ],
      "name": "getOwnershipHistory",
      "outputs": [
        {
          "internalType": "address[]",
          "name": "",
          "type": "address[]"
        }
      ],
      "stateMutability": "view",
      "type": "function"
    },
    {
      "inputs": [
        {
          "internalType": "uint64",
          "name": "_vehicleId",
          "type": "uint64"
        }
      ],
      "name": "getVehicle",
      "outputs": [
        {
          "internalType": "string",
          "name": "vehicleName",
          "type": "string"
        },
        {
          "internalType": "string",
          "name": "vehicleModel",
          "type": "string"
        },
        {
          "internalType": "enum VehicleReg.Status",
          "name": "status",
          "type": "uint8"
        },
        {
          "internalType": "address",
          "name": "currentOwner",
          "type": "address"
        },
        {
          "internalType": "address[]",
          "name": "ownershipHistory",
          "type": "address[]"
        }
      ],
      "stateMutability": "view",
      "type": "function"
    },
    {
      "inputs": [],
      "name": "owner",
      "outputs": [
        {
          "internalType": "address",
          "name": "",
          "type": "address"
        }
      ],
      "stateMutability": "view",
      "type": "function"
    },
    {
      "inputs": [
        {
          "internalType": "uint64",
          "name": "_vehicleId",
          "type": "uint64"
        },
        {
          "internalType": "address",
          "name": "_newOwner",
          "type": "address"
        }
      ],
      "name": "transferVehicleTo",
      "outputs": [],
      "stateMutability": "nonpayable",
      "type": "function"
    },
    {
      "inputs": [
        {
          "internalType": "uint256",
          "name": "",
          "type": "uint256"
        }
      ],
      "name": "vehicleToOwner",
      "outputs": [
        {
          "internalType": "address",
          "name": "",
          "type": "address"
        }
      ],
      "stateMutability": "view",
      "type": "function"
    },
    {
      "inputs": [
        {
          "internalType": "uint256",
          "name": "",
          "type": "uint256"
        }
      ],
      "name": "vehicles",
      "outputs": [
        {
          "internalType": "string",
          "name": "vehicleName",
          "type": "string"
        },
        {
          "internalType": "string",
          "name": "vehicleModel",
          "type": "string"
        },
        {
          "internalType": "enum VehicleReg.Status",
          "name": "status",
          "type": "uint8"
        },
        {
          "internalType": "address",
          "name": "currentOwner",
          "type": "address"
        }
      ],
      "stateMutability": "view",
      "type": "function"
    }
  ],
  "bytecode": "0x6080604052348015600f57600080fd5b50336000806101000a81548173ffffffffffffffffffffffffffffffffffffffff021916908373ffffffffffffffffffffffffffffffffffffffff160217905550611f008061005f6000396000f3fe608060405234801561001057600080fd5b50600436106100885760003560e01c8063b8ba95fa1161005b578063b8ba95fa1461012d578063e488bd3514610160578063e54561991461017c578063f8d10e27146101ac57610088565b80630a5351b51461008d5780638da5cb5b146100bd578063a9e40ebd146100db578063aef648561461010f575b600080fd5b6100a760048036038101906100a29190611273565b6101dc565b6040516100b49190611306565b60405180910390f35b6100c5610511565b6040516100d29190611362565b60405180910390f35b6100f560048036038101906100f091906113bd565b610535565b60405161010695949392919061159e565b60405180910390f35b6101176107b5565b6040516101249190611814565b60405180910390f35b6101476004803603810190610142919061186c565b610a57565b6040516101579493929190611899565b60405180910390f35b61017a60048036038101906101759190611918565b610bd4565b005b6101966004803603810190610191919061186c565b610eda565b6040516101a39190611362565b60405180910390f35b6101c660048036038101906101c191906113bd565b610f0d565b6040516101d39190611958565b60405180910390f35b60008060009054906101000a900473ffffffffffffffffffffffffffffffffffffffff1673ffffffffffffffffffffffffffffffffffffffff163373ffffffffffffffffffffffffffffffffffffffff161461026d576040517f08c379a0000000000000000000000000000000000000000000000000000000008152600401610264906119c6565b60405180910390fd5b61027561101b565b8381600001819052508281602001819052506001816040019060038111156102a05761029f611469565b5b908160038111156102b4576102b3611469565b5b8152505033816060019073ffffffffffffffffffffffffffffffffffffffff16908173ffffffffffffffffffffffffffffffffffffffff1681525050600181908060018154018082558091505060019003906000526020600020906004020160009091909190915060008201518160000190816103319190611bf2565b5060208201518160010190816103479190611bf2565b5060408201518160020160006101000a81548160ff0219169083600381111561037357610372611469565b5b021790555060608201518160020160016101000a81548173ffffffffffffffffffffffffffffffffffffffff021916908373ffffffffffffffffffffffffffffffffffffffff16021790555060808201518160030190805190602001906103db929190611072565b5050506000600180805490506103f19190611cf3565b90506001818154811061040757610406611d27565b5b9060005260206000209060040201600301339080600181540180825580915050600190039060005260206000200160009091909190916101000a81548173ffffffffffffffffffffffffffffffffffffffff021916908373ffffffffffffffffffffffffffffffffffffffff160217905550336002600083815260200190815260200160002060006101000a81548173ffffffffffffffffffffffffffffffffffffffff021916908373ffffffffffffffffffffffffffffffffffffffff1602179055507ffca11e45fad7ec54d23975262a06f1352202a2fb4877308aa2f1966cafcd3aeb8560016040516104fd929190611d56565b60405180910390a160019250505092915050565b60008054906101000a900473ffffffffffffffffffffffffffffffffffffffff1681565b60608060008060606001805490508667ffffffffffffffff161061058e576040517f08c379a000000000000000000000000000000000000000000000000000000000815260040161058590611dd2565b60405180910390fd5b600060018767ffffffffffffffff16815481106105ae576105ad611d27565b5b9060005260206000209060040201905080600001816001018260020160009054906101000a900460ff168360020160019054906101000a900473ffffffffffffffffffffffffffffffffffffffff168460030184805461060d90611a15565b80601f016020809104026020016040519081016040528092919081815260200182805461063990611a15565b80156106865780601f1061065b57610100808354040283529160200191610686565b820191906000526020600020905b81548152906001019060200180831161066957829003601f168201915b5050505050945083805461069990611a15565b80601f01602080910402602001604051908101604052809291908181526020018280546106c590611a15565b80156107125780601f106106e757610100808354040283529160200191610712565b820191906000526020600020905b8154815290600101906020018083116106f557829003601f168201915b505050505093508080548060200260200160405190810160405280929190818152602001828054801561079a57602002820191906000526020600020905b8160009054906101000a900473ffffffffffffffffffffffffffffffffffffffff1673ffffffffffffffffffffffffffffffffffffffff1681526020019060010190808311610750575b50505050509050955095509550955095505091939590929450565b60606001805480602002602001604051908101604052809291908181526020016000905b82821015610a4e57838290600052602060002090600402016040518060a001604052908160008201805461080c90611a15565b80601f016020809104026020016040519081016040528092919081815260200182805461083890611a15565b80156108855780601f1061085a57610100808354040283529160200191610885565b820191906000526020600020905b81548152906001019060200180831161086857829003601f168201915b5050505050815260200160018201805461089e90611a15565b80601f01602080910402602001604051908101604052809291908181526020018280546108ca90611a15565b80156109175780601f106108ec57610100808354040283529160200191610917565b820191906000526020600020905b8154815290600101906020018083116108fa57829003601f168201915b505050505081526020016002820160009054906101000a900460ff16600381111561094557610944611469565b5b600381111561095757610956611469565b5b81526020016002820160019054906101000a900473ffffffffffffffffffffffffffffffffffffffff1673ffffffffffffffffffffffffffffffffffffffff1673ffffffffffffffffffffffffffffffffffffffff16815260200160038201805480602002602001604051908101604052809291908181526020018280548015610a3657602002820191906000526020600020905b8160009054906101000a900473ffffffffffffffffffffffffffffffffffffffff1673ffffffffffffffffffffffffffffffffffffffff16815260200190600101908083116109ec575b505050505081525050815260200190600101906107d9565b50505050905090565b60018181548110610a6757600080fd5b9060005260206000209060040201600091509050806000018054610a8a90611a15565b80601f0160208091040260200160405190810160405280929190818152602001828054610ab690611a15565b8015610b035780601f10610ad857610100808354040283529160200191610b03565b820191906000526020600020905b815481529060010190602001808311610ae657829003601f168201915b505050505090806001018054610b1890611a15565b80601f0160208091040260200160405190810160405280929190818152602001828054610b4490611a15565b8015610b915780601f10610b6657610100808354040283529160200191610b91565b820191906000526020600020905b815481529060010190602001808311610b7457829003601f168201915b5050505050908060020160009054906101000a900460ff16908060020160019054906101000a900473ffffffffffffffffffffffffffffffffffffffff16905084565b813373ffffffffffffffffffffffffffffffffffffffff16600260008367ffffffffffffffff16815260200190815260200160002060009054906101000a900473ffffffffffffffffffffffffffffffffffffffff1673ffffffffffffffffffffffffffffffffffffffff1614610c80576040517f08c379a0000000000000000000000000000000000000000000000000000000008152600401610c7790611e3e565b60405180910390fd5b600073ffffffffffffffffffffffffffffffffffffffff168273ffffffffffffffffffffffffffffffffffffffff1603610cef576040517f08c379a0000000000000000000000000000000000000000000000000000000008152600401610ce690611eaa565b60405180910390fd5b600060018467ffffffffffffffff1681548110610d0f57610d0e611d27565b5b9060005260206000209060040201905060008160020160019054906101000a900473ffffffffffffffffffffffffffffffffffffffff169050838260020160016101000a81548173ffffffffffffffffffffffffffffffffffffffff021916908373ffffffffffffffffffffffffffffffffffffffff16021790555060028260020160006101000a81548160ff02191690836003811115610db357610db2611469565b5b021790555081600301849080600181540180825580915050600190039060005260206000200160009091909190916101000a81548173ffffffffffffffffffffffffffffffffffffffff021916908373ffffffffffffffffffffffffffffffffffffffff16021790555083600260008767ffffffffffffffff16815260200190815260200160002060006101000a81548173ffffffffffffffffffffffffffffffffffffffff021916908373ffffffffffffffffffffffffffffffffffffffff1602179055508373ffffffffffffffffffffffffffffffffffffffff168173ffffffffffffffffffffffffffffffffffffffff167f2e5506aa06cb016fe80cf2f33e885285f95af8a04ebb458e07d5e6a2eaf057da60405160405180910390a35050505050565b60026020528060005260406000206000915054906101000a900473ffffffffffffffffffffffffffffffffffffffff1681565b60606001805490508267ffffffffffffffff1610610f60576040517f08c379a0000000000000000000000000000000000000000000000000000000008152600401610f5790611dd2565b60405180910390fd5b60018267ffffffffffffffff1681548110610f7e57610f7d611d27565b5b906000526020600020906004020160030180548060200260200160405190810160405280929190818152602001828054801561100f57602002820191906000526020600020905b8160009054906101000a900473ffffffffffffffffffffffffffffffffffffffff1673ffffffffffffffffffffffffffffffffffffffff1681526020019060010190808311610fc5575b50505050509050919050565b6040518060a0016040528060608152602001606081526020016000600381111561104857611047611469565b5b8152602001600073ffffffffffffffffffffffffffffffffffffffff168152602001606081525090565b8280548282559060005260206000209081019282156110eb579160200282015b828111156110ea5782518260006101000a81548173ffffffffffffffffffffffffffffffffffffffff021916908373ffffffffffffffffffffffffffffffffffffffff16021790555091602001919060010190611092565b5b5090506110f891906110fc565b5090565b5b808211156111155760008160009055506001016110fd565b5090565b6000604051905090565b600080fd5b600080fd5b600080fd5b600080fd5b6000601f19601f8301169050919050565b7f4e487b7100000000000000000000000000000000000000000000000000000000600052604160045260246000fd5b61118082611137565b810181811067ffffffffffffffff8211171561119f5761119e611148565b5b80604052505050565b60006111b2611119565b90506111be8282611177565b919050565b600067ffffffffffffffff8211156111de576111dd611148565b5b6111e782611137565b9050602081019050919050565b82818337600083830152505050565b6000611216611211846111c3565b6111a8565b90508281526020810184848401111561123257611231611132565b5b61123d8482856111f4565b509392505050565b600082601f83011261125a5761125961112d565b5b813561126a848260208601611203565b91505092915050565b6000806040838503121561128a57611289611123565b5b600083013567ffffffffffffffff8111156112a8576112a7611128565b5b6112b485828601611245565b925050602083013567ffffffffffffffff8111156112d5576112d4611128565b5b6112e185828601611245565b9150509250929050565b60008115159050919050565b611300816112eb565b82525050565b600060208201905061131b60008301846112f7565b92915050565b600073ffffffffffffffffffffffffffffffffffffffff82169050919050565b600061134c82611321565b9050919050565b61135c81611341565b82525050565b60006020820190506113776000830184611353565b92915050565b600067ffffffffffffffff82169050919050565b61139a8161137d565b81146113a557600080fd5b50565b6000813590506113b781611391565b92915050565b6000602082840312156113d3576113d2611123565b5b60006113e1848285016113a8565b91505092915050565b600081519050919050565b600082825260208201905092915050565b60005b83811015611424578082015181840152602081019050611409565b60008484015250505050565b600061143b826113ea565b61144581856113f5565b9350611455818560208601611406565b61145e81611137565b840191505092915050565b7f4e487b7100000000000000000000000000000000000000000000000000000000600052602160045260246000fd5b600481106114a9576114a8611469565b5b50565b60008190506114ba82611498565b919050565b60006114ca826114ac565b9050919050565b6114da816114bf565b82525050565b600081519050919050565b600082825260208201905092915050565b6000819050602082019050919050565b61151581611341565b82525050565b6000611527838361150c565b60208301905092915050565b6000602082019050919050565b600061154b826114e0565b61155581856114eb565b9350611560836114fc565b8060005b83811015611591578151611578888261151b565b975061158383611533565b925050600181019050611564565b5085935050505092915050565b600060a08201905081810360008301526115b88188611430565b905081810360208301526115cc8187611430565b90506115db60408301866114d1565b6115e86060830185611353565b81810360808301526115fa8184611540565b90509695505050505050565b600081519050919050565b600082825260208201905092915050565b6000819050602082019050919050565b600082825260208201905092915050565b600061164e826113ea565b6116588185611632565b9350611668818560208601611406565b61167181611137565b840191505092915050565b611685816114bf565b82525050565b600082825260208201905092915050565b60006116a7826114e0565b6116b1818561168b565b93506116bc836114fc565b8060005b838110156116ed5781516116d4888261151b565b97506116df83611533565b9250506001810190506116c0565b5085935050505092915050565b600060a08301600083015184820360008601526117178282611643565b915050602083015184820360208601526117318282611643565b9150506040830151611746604086018261167c565b506060830151611759606086018261150c565b5060808301518482036080860152611771828261169c565b9150508091505092915050565b600061178a83836116fa565b905092915050565b6000602082019050919050565b60006117aa82611606565b6117b48185611611565b9350836020820285016117c685611622565b8060005b8581101561180257848403895281516117e3858261177e565b94506117ee83611792565b925060208a019950506001810190506117ca565b50829750879550505050505092915050565b6000602082019050818103600083015261182e818461179f565b905092915050565b6000819050919050565b61184981611836565b811461185457600080fd5b50565b60008135905061186681611840565b92915050565b60006020828403121561188257611881611123565b5b600061189084828501611857565b91505092915050565b600060808201905081810360008301526118b38187611430565b905081810360208301526118c78186611430565b90506118d660408301856114d1565b6118e36060830184611353565b95945050505050565b6118f581611341565b811461190057600080fd5b50565b600081359050611912816118ec565b92915050565b6000806040838503121561192f5761192e611123565b5b600061193d858286016113a8565b925050602061194e85828601611903565b9150509250929050565b600060208201905081810360008301526119728184611540565b905092915050565b7f596f75277265206e6f7420616c6c6f7765640000000000000000000000000000600082015250565b60006119b06012836113f5565b91506119bb8261197a565b602082019050919050565b600060208201905081810360008301526119df816119a3565b9050919050565b7f4e487b7100000000000000000000000000000000000000000000000000000000600052602260045260246000fd5b60006002820490506001821680611a2d57607f821691505b602082108103611a4057611a3f6119e6565b5b50919050565b60008190508160005260206000209050919050565b60006020601f8301049050919050565b600082821b905092915050565b600060088302611aa87fffffffffffffffffffffffffffffffffffffffffffffffffffffffffffffffff82611a6b565b611ab28683611a6b565b95508019841693508086168417925050509392505050565b6000819050919050565b6000611aef611aea611ae584611836565b611aca565b611836565b9050919050565b6000819050919050565b611b0983611ad4565b611b1d611b1582611af6565b848454611a78565b825550505050565b600090565b611b32611b25565b611b3d818484611b00565b505050565b5b81811015611b6157611b56600082611b2a565b600181019050611b43565b5050565b601f821115611ba657611b7781611a46565b611b8084611a5b565b81016020851015611b8f578190505b611ba3611b9b85611a5b565b830182611b42565b50505b505050565b600082821c905092915050565b6000611bc960001984600802611bab565b1980831691505092915050565b6000611be28383611bb8565b9150826002028217905092915050565b611bfb826113ea565b67ffffffffffffffff811115611c1457611c13611148565b5b611c1e8254611a15565b611c29828285611b65565b600060209050601f831160018114611c5c5760008415611c4a578287015190505b611c548582611bd6565b865550611cbc565b601f198416611c6a86611a46565b60005b82811015611c9257848901518255600182019150602085019450602081019050611c6d565b86831015611caf5784890151611cab601f891682611bb8565b8355505b6001600288020188555050505b505050505050565b7f4e487b7100000000000000000000000000000000000000000000000000000000600052601160045260246000fd5b6000611cfe82611836565b9150611d0983611836565b9250828203905081811115611d2157611d20611cc4565b5b92915050565b7f4e487b7100000000000000000000000000000000000000000000000000000000600052603260045260246000fd5b60006040820190508181036000830152611d708185611430565b9050611d7f60208301846114d1565b9392505050565b7f56656869636c65204944206f7574206f6620626f756e64730000000000000000600082015250565b6000611dbc6018836113f5565b9150611dc782611d86565b602082019050919050565b60006020820190508181036000830152611deb81611daf565b9050919050565b7f4f6e6c792076656869636c65206f776e657220616c6c6f776564000000000000600082015250565b6000611e28601a836113f5565b9150611e3382611df2565b602082019050919050565b60006020820190508181036000830152611e5781611e1b565b9050919050565b7f4e6577206f776e65722063616e2774206265207a65726f206164647265737300600082015250565b6000611e94601f836113f5565b9150611e9f82611e5e565b602082019050919050565b60006020820190508181036000830152611ec381611e87565b905091905056fea2646970667358221220347012f5f882b353885cc8c11d4f0b017cda7768192e4550aa1b4af2387c160564736f6c634300081b0033",
  "linkReferences": {},
  "deployedLinkReferences": {}
}